:100000000C943E000C945B000C945B000C945B0021
:100010000C945B000C945B000C945B000C945B00F4
:100020000C945B000C945B000C945B000C945B00E4
:100030000C945B000C945B000C945B000C945B00D4
:100040000C945B000C945B000C945B000C945B00C4
:100050000C945B000C945B000C945B000C945B00B4
:100060000C945B000C945B000C945B000C945B00A4
:100070000C945B000C945B000C945B0011241FBE7D
:10008000CFEFD0E1DEBFCDBF11E0A0E0B1E0EEEAFE
:10009000F6E002C005900D92A630B107D9F712E044
:1000A000A6E0B1E001C01D92AA33B107E1F70E94BA
:1000B0002F030C9455030C9400008FEF81B982B983
:1000C00084B985B987B988B98AB98BB90898089570
:1000D00080E18093C40082E08093C00088E1809337
:1000E000C1008EE08093C200089583E38093CC002A
:1000F00082E08093C80088E18093C9008EE08093FD
:10010000CA00089581E58CBD26980895F89484E08E
:1001100080938100109285001092840081E080938A
:100120006F007894089516980895169A0895159872
:100130000895159A08958EBD0DB407FEFDCF8DB5B7
:100140008EB5089585B186958695817008958093C2
:100150000701882319F40E94970008950E949900CE
:100160000895CF93C82F0E9493008C2F0E949B006C
:100170008FEF0E949B00C82F0E9495008C2FCF917B
:1001800008951F93CF93DF93182FD62F0E94A200BC
:10019000C82F80E00E94A7000E949300812F8062F8
:1001A0000E949B008D2F0E949B000E9495008C2F27
:1001B0000E94A700DF91CF911F910895EF92FF92C7
:1001C0000F931F93CF93DF93C82F162FE72E042F83
:1001D0000E94A200F82E80E00E94A7000E949300D7
:1001E0008C2F80620E949B00002349F0C12FDE2DDE
:1001F00010E089910E949B001F5F1017D1F70E94A9
:1002000095008F2D0E94A700DF91CF911F910F9134
:10021000FF90EF9008950E94930081EE0E949B0052
:100220000E94950008950E94930082EE0E949B0018
:100230000E94950008950E94930083EE0E949B0007
:100240000E94950008950E9493008FEF0E949B00EA
:100250000E9495000895CF930E94930087E00E942A
:100260009B00C82F0E9495008C2FCF910895CF93AB
:10027000DF93D82F0E942B01C82F0E949300D077C4
:100280006C2F6D2B87E00E94C1000E9495000E9498
:100290002B01DF91CF9108950E942B018077089563
:1002A000CF930E94930080E60E949B008FEF0E94F4
:1002B0009B00C82F0E9495008C2FCF910895FF922C
:1002C0000F931F93CF93DF93082FF92E87E00E949F
:1002D000B1000E945001182F0E94930081E60E94F5
:1002E0009B00112351F0C02FDF2D00E08FEF0E9403
:1002F0009B0089930F5F0117C9F70E9495000E9428
:100300001301812FDF91CF911F910F91FF900895DD
:10031000FF920F931F93CF93DF93082FF92E162F81
:10032000613208F010E20E940B010E94930080EA03
:100330000E949B00112349F0C02FDF2D00E089911E
:100340000E949B000F5F0117D1F70E949500DF917B
:10035000CF911F910F91FF9008950F931F93CF930B
:10036000DF938C01C62FD62FD150D032B8F40E9423
:10037000930080EB0E949B00CC2371F0C801019692
:100380009C012D0F311DE901F80181918F010E941F
:100390009B000C171D07C1F70E949500DF91CF91BC
:1003A0001F910F910895FF920F931F93CF93DF93A7
:1003B000082FF92E162F613208F010E20E949300E8
:1003C00088EA0E949B00112349F0C02FDF2D00E036
:1003D00089910E949B000F5F0117D1F70E94950041
:1003E000DF91CF911F910F91FF9008959C01462FAF
:1003F000663008F045E080E1B9010E94DE00089512
:10040000863008F085E0865F463008F045E00E94BF
:10041000DE000895CF93C82F86E00E94B100682FB8
:10042000677DCC2311F4606207C0C13011F4677D91
:1004300003C0C23009F4686086E00E94C100CF9119
:100440000895CF93C82F86E00E94B100682F687F7F
:10045000C23031F0C33031F0C13029F4626003C0E2
:10046000646001C0666086E00E94C100CF9108957B
:10047000682F6F7785E00E94C100089587E10E9490
:10048000B10080710895CF93DF93C82F80E00E9460
:10049000B100D82FCC2329F4DE7F80E00E94A70092
:1004A00006C0C13021F4D16081E00E94A70080E045
:1004B0006D2F0E94C100DF91CF91089580E00E94CE
:1004C000B100682F6D7F80E00E94C100089580E038
:1004D0000E94B100682F626080E00E94C100089510
:1004E000CF93DF9300D000D000D0CDB7DEB7DE01D0
:1004F0001196E0E0F1E085E001900D928150E1F786
:100500000E94A2008E8380E00E94A7000E945E02EB
:1005100080E70E9437018CE161E00E94C1008DE11B
:1005200066E00E94C1008CE10E94B1008DE10E9452
:10053000B1008CE10E94B100809306018DE10E9420
:10054000B1008093060180E068E00E94C10081E074
:1005500061E00E94C10082E061E00E94C10083E08E
:1005600063E00E94C10084E06FE80E94C10085E062
:1005700060E00E94C10086E067E20E94C100CE01F7
:10058000019665E00E94F60180E0BE016F5F7F4F3B
:1005900045E00E9400020E94670286E00E94B100CE
:1005A000809306010F9826960FB6F894DEBF0FBE13
:1005B000CDBFDF91CF9108950F931F93CF93DF931A
:1005C000CDB7DEB727970FB6F894DEBF0FBECDBF0D
:1005D00001E312E323E330E009831A832B833C8396
:1005E0001E821D821F8289836A834B830E941301AE
:1005F0000E940B01CE01019665E00E9488010E94D5
:1006000099000E944C018F838823D9F30E949700A0
:100610008F8185FF07C00E94970080E70E94370105
:1006200081E012C08F8184FF07C00E94970080E79D
:100630000E94370180E008C08F810E94970080E708
:100640000E9437010E94970027960FB6F894DEBFEC
:100650000FBECDBFDF91CF911F910F910895CF9322
:10066000DF9300D000D000D0CDB7DEB71A82198258
:100670001C821B821E821D820E945D000E948200DD
:100680008FEF99E6A8E181509040A040E1F700C0CB
:100690000000139A8FEF99E6A8E181509040A040A6
:0E06A000E1F700C000001398EBCFF894FFCFF5
:0606AE0011223344550047
:00000001FF
